:020000040800F2
:1000000070070020B9170008A5060008A706000819
:10001000AB060008AF060008B306000800000000A9
:10002000000000000000000000000000B70600080B
:10003000B906000800000000BB060008BD06000865
:10004000D3170008D3170008D3170008D3170008E8
:10005000D3170008D317000887050008D317000836
:10006000D3170008D3170008D3170008D3170008C8
:10007000D3170008D3170008D3170008D3170008B8
:10008000D3170008D3170008D3170008D3170008A8
:10009000D3170008D3170008D3170008D317000898
:1000A000D3170008D3170008D3170008D317000888
:1000B000D3170008D3170008D3170008D317000878
:1000C000D3170008D3170008D3170008D317000868
:1000D000D31700082B170008E3030008D317000804
:1000E000D3170008D3170008D3170008D317000848
:1000F000D3170008D3170008D3170008D317000838
:10010000D3170008D3170008D3170008D317000827
:10011000D3170008D3170008D3170008D317000817
:10012000D3170008D3170008D3170008D317000807
:1001300000F002F800F04FF80AA090E8000C8244AA
:100140008344AAF10107DA4501D100F044F8AFF287
:10015000090EBAE80F0013F0010F18BFFB1A43F0A5
:10016000010318471C4D00003C4D0000103A24BF0D
:1001700078C878C1FAD8520724BF30C830C144BF0C
:1001800004680C607047000000230024002500264E
:10019000103A28BF78C1FBD8520728BF30C148BFEA
:1001A0000B607047662904F0D485632903F005814C
:1001B000732903F00A81002070471FB5AFF3008058
:1001C00003F008F904000020002103F03DFEE06088
:1001D0001FBD10B510BD03F0FBF91146FFF7EDFF91
:1001E00000F006F803F019FAFFF7F3FF01F040FA08
:1001F00070B5A6B001F0DCF94FF4165001F046FAE4
:100200004FF4165001F07EF900F066FB00F03CFB65
:1002100001F04CF900F07AFC00F034FD00F078FBBE
:10022000FC4801F0EDFB00F47F4040F0AA042146B9
:10023000F84801F0F2FB00F093FB00F055FF0120BD
:10024000F54908603020F5490870F5490870012229
:100250000021F24801F087F801221146F04801F030
:1002600082F8EE4800786D280CD10120EA49091D7A
:1002700008600020EB49C1F8B4010120E6491031C3
:10028000086012E00020E449091D0860E549C1F852
:10029000B0010120C1F8B401E0480078742804D00E
:1002A00001220021E0A000F094FFDD4800786328DF
:1002B00003D10120DD4908600EE00020DB49086021
:1002C000D6480078732807D001221146D8A000F044
:1002D00080FF7320D249087082E0D648007860B170
:1002E0000020D4490870D449D4A002F013FDD248AC
:1002F00001F0FAF80020D0490870C9480078632856
:1003000002D10120CE490870CD480078012800D0E4
:1003100066E00020CA4908700120C449091F08602E
:10032000C8A00CC8002000F036FB4FF47A7001F032
:1003300076F94FF4FA7001F072F900F07AFD0BA92A
:100340000AA800F056FE0A21084600F038FC0546CF
:10035000284604F014FB044604F044FACDE90801F1
:10036000BAA00CC8089804F0E3F8CDE9060103F040
:1003700081FD0646304604F035FACDE908010A98B9
:1003800004F030FACDE906010B9804F02BFACDE920
:100390000401DDE90801CDE90201DDE90601CDE94D
:1003A0000001ACA10CA8DDE9042302F0C3FC0CA9F8
:1003B000A2A002F0AFFC0CA801F096F8A1A00CC816
:1003C000042000F0E8FA0020A849C1F894014FF495
:1003D0007A7001F024F94FF47A7001F020F900BF2F
:1003E0007BE738B540F22551A14801F032FF0028E3
:1003F00077D09F4801F0ADFEC4B29E489E4909786F
:1004000044549D480078401C9B49087099480078E6
:100410003A2801D00020087097480078052801DAB2
:100420000A2C5ED1002094490870924840786328D5
:1004300059D00EDC542837D006DC432852D04D2842
:1004400014D053287AD163E058287AD05A28F9D1A9
:100450007CE0742829D004DC6D2808D07328F1D101
:1004600057E078286ED07A28ECD170E000BF0122E6
:10047000002182A000F0ADFE6D20684908700120C7
:100480006549091D086000206649C1F8B4010120D2
:10049000C1F8B0017748427879A1674802F04AFC78
:1004A0000120644908706CE000BF012200215EA0B9
:1004B00000F08FFE74205949087000205649091D2C
:1004C00008605849C1F8B0010120C1F8B401694879
:1004D00042786BA1584802F02DFC01205549087064
:1004E0004FE04FE000BF0122114667A000F071FE0F
:1004F00063204B49087001204C4908605D484278F0
:100500005FA14D4802F016FC01204A49087038E00E
:1005100000BF0122114646A000F05BFE7320404957
:1005200008700020414908605248427854A142486E
:1005300002F000FC01203F49087022E020E000E0CA
:1005400000E000BF01203E4908701AE000BF012210
:100550000021324800F007FF01221146304800F028
:1005600002FF2F4803784348009342782B480378D2
:1005700046A1314802F0DEFB01202E49087000E060
:1005800000BF00BF38BD08B50A2001F048F80121BE
:10059000414801F01FFA002838D1012200216846A5
:1005A00000F0E1FE9DF80000742818D101201A49DE
:1005B000091D086000201B49C1F8B401012016493B
:1005C00010310860012200212CA000F002FE33A1AE
:1005D000194802F0AFFB01201649087016E0002010
:1005E0000D49091D08600F49C1F8B00101200A49F1
:1005F00014310860012200210BA000F0EAFD28A1BF
:100600000D4802F097FB01200A490870012002F012
:1006100074FB08BD00140140A081214208000020A5
:10062000090000200080214274000000980123424C
:1006300073000000010000200A0000202573000064
:100640000200002000000000006A184100000000C5
:100650000000483F3A562025322E31662025322EA2
:10066000316620252E33660A000000000000234278
:100670000044004003000020000000206D00000046
:100680003A25630A00000000630000003A25632059
:1006900025632025630A0000000C01403A6D0A0022
:1006A0003A740A00704700BFFEE700BFFEE700BFD4
:1006B000FEE700BFFEE770477047704770470000D5
:1006C00000200021674A126842F48032654B1A60AC
:1006D00000BF644A126802F40031401C11B9B0F541
:1006E000A06FF6D15F4A126812F4003F01D00121D9
:1006F00000E00021012942D15B4A126842F0100259
:10070000594B1A601A46126822F003021A601A4600
:10071000126842F002021A60524A5268514B5A6003
:100720001A4652685A601A46526842F480625A6009
:100730001A46526822F47C125A601A46526842F4F1
:10074000E8125A601A46126842F080721A6000BFBE
:10075000444A126812F0007FFAD0424A526822F0EE
:100760000302404B5A601A46526842F002025A6035
:1007700000BF3C4A526802F00C02082AF9D17047C7
:1007800010B5FFF79DFF10BD10B53648006840F06A
:10079000010034490860084640683449084031493E
:1007A000486008460068324908402E4908600846FB
:1007B000006820F4802008600846406820F4FE00AD
:1007C00048604FF41F008860FFF7DAFF4FF00060C9
:1007D0002849086010BD10B5002000210022214BDF
:1007E0005B6803F00C0020B1042806D0082828D14B
:1007F00007E0214B214C236027E01F4B1F4C236057
:1008000023E0184B5B6803F47011164B5B6803F42C
:100810008032022303EB914122B9194B4B43174C11
:1008200023600DE00F4B5B6813F4003F04D0144BC2
:100830004B43124C236003E00F4B4B430F4C2360A0
:1008400003E00D4B0D4C236000BF00BF054B5B6800
:10085000C3F303130B4CE05C084B1B68C340074C0D
:10086000236010BD00100240002002400000FFF88D
:10087000FFFFF6FE08ED00E000127A0010000020F5
:1008800000093D001400002008B50121482001F0B6
:10089000BDFA4FF44050ADF8000014208DF803006D
:1008A00003208DF802006946094801F005F84FF46D
:1008B0004051074801F0AAF86020ADF800006946F1
:1008C000044800F0F9FF6021024801F09FF808BDDC
:1008D000000C01400018014008B50121082001F07A
:1008E00095FA4FF44070ADF8000010208DF8030029
:1008F00003208DF802006946044800F0DDFF4FF444
:100900004071024801F082F808BD0000000C01406F
:1009100008B50121602001F079FAFF20ADF8000050
:1009200010208DF8030003208DF8020069466F48FF
:1009300000F0C2FF00216D4801F06FF80720ADF80C
:10094000000010208DF8030003208DF80200694696
:10095000674800F0B1FF0721654801F057F808BD6E
:1009600010B50020634908606349C1F884016149FA
:1009700008310860012000F052FE01205E49C1F8F4
:10098000880100F04CFE00205A490831086001201F
:1009900000F045FE10BD2DE9FF4182B0044657A18D
:1009A00003C9CDE9000157A00CC8DDE9040103F03B
:1009B00023FBCDE90401DDE90023DDE9040103F0B7
:1009C000B7FDCDE90401DDE9040103F015FD06469C
:1009D0002546464801F014F800F47F402C4640EAD2
:1009E00005073946414801F018F8012041490860DF
:1009F00000F015FE00204049C1F88001012000F000
:100A00000EFE350E394800F0FBFF00F47F4040EA4F
:100A100005073946354801F000F8012035490860DE
:100A200000F0FDFD00203449C1F88001012000F0F4
:100A3000F6FDC6F307452D4800F0E2FF00F47F40C5
:100A400040EA05073946294800F0E7FF0120294917
:100A5000086000F0E4FD00202749C1F88001012072
:100A600000F0DDFDC6F30725204800F0C9FF00F4C3
:100A70007F4040EA050739461C4800F0CEFF0120C0
:100A80001D49C1F8800100F0CAFD00201A49C1F8D3
:100A90008001012000F0C3FDF5B2144800F0B0FF62
:100AA00000F47F4040EA05073946104800F0B5FFE2
:100AB00001201149C1F8800100F0B1FD00200E496C
:100AC000C1F88001012000F0AAFD01200A49C1F807
:100AD000840100F0A4FD00200749C1F88401012031
:100AE00000F09DFD06B0BDE8F0810000001401405B
:100AF000001801408001234200002342AE47E1D2AA
:100B00004D6280410000000080842E4100B587B016
:100B100001214FF4047001F079F94FF4004001F025
:100B2000D9F80120ADF8040000208DF8070001A9D4
:100B30002E4800F0C1FE2E4801F03EFC002002903D
:100B40008DF80C008DF80D004FF46020049000200B
:100B5000059001208DF8180002A9254801F053FCEA
:100B60000121234801F07AFC214801F099FC00BFE3
:100B70001F4801F09AFC0028FAD11D4801F09FFCA3
:100B800000BF1B4801F0A0FC0028FAD107B000BD4F
:100B900010B50446072301222146154801F0C9FC7F
:100BA0000121134801F09AFC00BF0221104801F016
:100BB000E9FD0028F9D00E4801F020FD10BD2DE917
:100BC000F04104460D460026002708E02046FFF7C6
:100BD000DFFF0644052000F022FD781CC7B2AF42BB
:100BE000F4DBB6FBF5F080B2BDE8F0810010014007
:100BF0000024014010B50A2000F0EFFC10BD08B53C
:100C00004FF40060ADF8000003208DF802001020C2
:100C10008DF803006946FF4800F04EFE08BD10B590
:100C2000FFF7EDFF4FF48061FA4800F0EFFEFFF7A9
:100C3000E1FF4FF48061F74800F0E6FEFFF7DAFFCE
:100C40004FF40061F34800F0E1FEFFF7D3FF4FF4EB
:100C50008061F04800F0DAFEFFF7CCFF4FF48061CE
:100C6000EC4800F0D1FEFFF7C5FF4FF40061E94802
:100C700000F0CAFEFFF7BEFF4FF48061E54800F0C8
:100C8000C5FE10BD08B50121082001F0BFF84FF4E2
:100C90000060ADF8000003208DF8020010208DF8F0
:100CA00003006946DB4800F007FE4FF48060ADF8B2
:100CB000000003208DF8020010208DF80300694623
:100CC000D44800F0F9FD08BD08B54FF40060ADF858
:100CD000000048208DF803006946CE4800F0ECFD86
:100CE00008BD70B504460026FFF7EEFF802518E02A
:100CF000FFF780FF4FF48061C64800F085FEFFF7E4
:100D000079FF4FF40061C34800F064FE00B12E4348
:100D10004FF48061BF4800F079FE284605EBD5719D
:100D20004D10002DE4DCFFF76AFF2CB14FF4006199
:100D3000B84800F06BFE04E04FF40061B54800F0E5
:100D400063FEFFF757FF4FF48061B24800F05CFE8E
:100D5000FFF750FF4FF48061AE4800F057FEFFF7F9
:100D600049FF304670BD70B504460026FFF747FFC7
:100D7000802520E0254205D04FF40061A54800F011
:100D800043FE04E04FF40061A24800F03FFEFFF78D
:100D900031FF4FF480619F4800F036FEFFF72AFFD5
:100DA0004FF480619B4800F031FEFFF723FF284697
:100DB00005EBD5714D10002DDCDCFFF785FF4FF4FE
:100DC0008061944800F020FEFFF714FF4FF40061AB
:100DD000904800F0FFFD06464FF480618D4800F01A
:100DE00015FEFFF707FF304670BD10B5FFF707FF90
:100DF0004FF40061874800F007FE4FF4806185489A
:100E000000F004FE00240FE04FF48061814800F000
:100E1000FBFDFFF7EFFE4FF480617E4800F0F6FD2A
:100E2000FFF7E8FE601CC4B2092CEDDBFFF7F7FE0C
:100E300010BD10B50024FFF7D8FF1E20FFF793FF69
:100E40000446204610BD2DE9F04104460D461646E5
:100E50004FF000080027FFF7E2FE16B1012E0CD17B
:100E600005E00320FFF77FFF3844C7B206E0052006
:100E7000FFF779FF3844C7B200E000BF00BF5FBB97
:100E8000FFF722FF4FF000080DE0142000F0C7FB31
:100E90004FF400615F4800F09DFD00B906E008F1E5
:100EA000010000F0FF08B8F1100FEEDB00BFB8F151
:100EB000100F02DB0120BDE8F0810120FFF711FFD8
:100EC000000220800120FFF70CFF218808442080C9
:100ED0000020FFF706FF28703846ECE72DE9F04FB9
:100EE0008DB004460D4616461F464B480C904B48A5
:100EF0000B904B480A904B4809904B4808904B4840
:100F00000790484806902088059028880490002083
:100F1000039080460290049803F031FD82464149D7
:100F200003F062FD8146414903F084FC029005987C
:100F300003F025FD0190059803F021FD384900904C
:100F400003F052FD8346019903F04EFD814605985A
:100F500003F015FD3149019003F046FD83462E490B
:100F600003F068FC8246494603F064FC0390059850
:100F700003F005FD2C49009003F036FD8346294916
:100F800003F058FC82462A49029803F00DFE5146B0
:100F9000019003F029FD8146039903F04BFC804644
:100FA0002449029803F0CAFD01D222480290224946
:100FB000029803F0E9FC01D21F4802901F49404605
:100FC00003F0BCFD01D2DFF87480404603F00AFC58
:100FD000CDE900011AA00CC8009803F071FA01D203
:100FE000DFF86480C6F80080029838600DB0BDE874
:100FF000F08F7CB504460D4600260020019000903D
:10100000012212496846FFF71EFF30B301220F4943
:1010100068461DE0000C0140000080C054E3253DFF
:10102000A2E73BB60AD7233CACC5A738CDCC1EC23D
:101030000000C8410000F042000020C20000C84289
:101040009A9999999999B93FCDCCCC3D240000202B
:10105000FFF7F9FE08B1701CC6B20022074901A8CB
:10106000FFF7F1FE08B1701CC6B22B46224601A95B
:101070006846FFF733FF30467CBD000024000020A7
:1010800008B50121082000F0C1FE0121480500F04B
:10109000CAFEC020ADF8000003208DF802001C201D
:1010A0008DF803006946E74800F006FC08BD1FB54F
:1010B0000020ADF804004BF6FF70ADF806000A20E2
:1010C000ADF808004FF48060ADF80A000001ADF8FB
:1010D0000C00DD4800906946DC4801F09EFB0121D0
:1010E000DA4801F01CFC1FBD10B5FFF7C9FFFFF780
:1010F000DEFFA020D649088010BD10B5002400BF37
:101100000121D24801F02FFC1421D04801F08CFCC1
:1011100004460022CE480088C1B2CC4801F07BFCD6
:101120001421CA4801F080FC10F0020FE8D0C94930
:10113000C64801F02EFD0121C44801F020FC10BD7D
:1011400070B504460D46164600BF4FF40031BF4847
:1011500001F00AFD0028F8D10121BC4801F003FC90
:1011600000BFBD49B94801F0DDFC0028F9D00022DC
:10117000B7480088C1B2B54801F04DFC00BFB7497F
:10118000B24801F0CFFC0028F9D02946AF4801F061
:101190003CFC00BFB149891CAC4801F0C3FC0028ED
:1011A000F8D00CE02178A94801F02FFC641C00BFA6
:1011B000AA49891CA54801F0B5FC0028F8D03000E8
:1011C000A6F10101CEB2EDD10121A04801F0D7FB7B
:1011D00070BD2DE9F04704460D4616460027B84677
:1011E000B946BA462846E91705EB5171C910A5EB77
:1011F000C10101F0FF09C9F1080000F0FF0A304603
:10120000F11706EB5171C1F3C707F11706EB5171E6
:10121000C910A6EBC10101F0FF08B9F1000F24D1FC
:101220003FB9424629462046FFF78AFFFFF765FF90
:101230005EE00AE0082229462046FFF781FFFFF71B
:101240005CFF05F10800C5B208343800A7F10101C0
:10125000CFB2EFD1B8F1000F4AD04246294620461E
:10126000FFF76EFFFFF749FF42E03FB942462946CC
:101270002046FFF765FFFFF740FF39E0A6EB0A00C5
:1012800086B23046F11706EB5171C1F3C707F1176B
:1012900006EB5171C910A6EBC10101F0FF08BAF1CC
:1012A000000F0AD0524629462046FFF749FFFFF7B4
:1012B00024FF05EB0A00C5B254440AE0082229467F
:1012C0002046FFF73DFFFFF718FF05F10800C5B204
:1012D00008343800A7F10101CFB2EFD1B8F1000F07
:1012E00006D0424629462046FFF72AFFFFF705FFB2
:1012F000BDE8F08770B504460D460121534801F062
:1013000032FB00BF5449514801F00CFC0028F9D0D1
:1013100000224F480088C1B24C4801F07CFB00BF5E
:101320004E494A4801F0FEFB0028F9D029464748BB
:1013300001F06BFB00BF4949891C444801F0F2FBF6
:101340000028F8D02178414801F05FFB00BF4349F5
:10135000891C3E4801F0E6FB0028F8D001213B48FB
:1013600001F00DFB70BD70B504460D46164600BF7A
:101370004FF40031354801F0F7FB0028F8D1012186
:10138000324801F0F0FA00BF3349304801F0CAFB9F
:101390000028F9D000222E480088C1B22B4801F065
:1013A0003AFB00BF2D49294801F0BCFB0028F9D0C9
:1013B0000121264801F0B3FA2946244801F025FB13
:1013C00000BF2649891C214801F0ACFB0028F8D059
:1013D00001211E4801F0C7FA00BF1F491B4801F058
:1013E000A1FB0028F9D0012219480088C1B2174892
:1013F00001F011FB00BF1849491C144801F092FB91
:101400000028F8D016E0012E07D100210F4801F086
:10141000C2FA01210D4801F0B2FA0F493F310B48E1
:1014200001F080FB30B1094801F0F1FA2070641C32
:10143000701E86B2002EE6D10121044801F0ABFAFD
:1014400070BD0000000C0140801A060000540040EE
:1014500026000020000400100100030082000700A5
:101460000EB50121084600F0D1FC0021012000F05A
:1014700032FB0120019000208DF808000C208DF82F
:10148000090001208DF80A0001A801F0B9FB06202F
:101490008DF8000002208DF801008DF80200012077
:1014A0008DF80300684600F01CFF0EBD08B5012151
:1014B000082000F0ABFC0120ADF8000048208DF8BA
:1014C00003006946024800F0F7F9FFF7C9FF08BDBD
:1014D000000C014000BF3449098811F0400FFAD0D8
:1014E0003149091D0880704700B50246002304E019
:1014F000D05CFFF7EFFF581C83B2D05C0028F7D117
:10150000104600BD10B586B004460121042000F04D
:101510007DFC0121480400F086FC234800F0D8FC43
:101520000420ADF8140003208DF8160018208DF863
:10153000170005A91D4800F0BFF90820ADF81400F8
:1015400004208DF8170005A9184800F0B5F92620E9
:101550008DF8000003208DF8010004208DF80200B2
:1015600001208DF80300684600F0BBFE01940020C6
:10157000ADF80800ADF80A00ADF80C00ADF81000A9
:101580000C20ADF80E0001A9074800F0E4FC012290
:1015900040F22551044800F075FD0121024800F099
:1015A00065FD06B010BD0000004400400008014089
:1015B00010B56FF0040000F0E1FE2A4800682A49E7
:1015C000B0FBF1F029490870084600784FF47A71B1
:1015D00048432649891C088010BD244A127842439A
:1015E0004FF0E0235A6100229A611A46126942F0D4
:1015F00001021A6100BF4FF0E022116911F0010FE2
:1016000002D011F4803FF6D04FF0E022126922F0B0
:1016100001024FF0E0231A6100229A617047134AD9
:10162000921C128842434FF0E0235A6100229A61D3
:101630001A46126942F001021A6100BF4FF0E0221F
:10164000116911F0010F02D011F4803FF6D04FF074
:10165000E022126922F001024FF0E0231A61002219
:101660009A6170471000002000127A0028000020C4
:10167000014600BF704700BF4B4A128812F0400F6E
:10168000FAD0C2B2484B1B1D1A80704710B586B005
:101690000446012144F2040000F0B8FB424800F087
:1016A00017FC4FF40070ADF8140003208DF81600FD
:1016B00018208DF8170005A93C4800F0FDF84FF4FC
:1016C0008060ADF8140004208DF8170005A9374894
:1016D00000F0F2F825208DF8000003208DF80100BD
:1016E0008DF8020001208DF80300684600F0F9FD36
:1016F00001940020ADF80800ADF80A00ADF80C0028
:10170000ADF810000C20ADF80E0001A9264800F03D
:1017100022FC012240F22551234800F0B3FC0121B4
:10172000214800F0A3FC06B010BD10B540F22551D1
:101730001D4800F08EFD002834D01B4800F009FD44
:10174000C4B21B48008810F4004F2BD11848008801
:1017500010F4804F0CD00A2C03D0002014490880CC
:1017600020E01348008840F400401149088019E047
:101770000D2C06D10E48008840F480400C490880AA
:1017800010E00B480088C0F30D000A490C540848CB
:101790000088401C0649088008460088C72801DDEB
:1017A0000020088010BD0000003801400008014002
:1017B0002C000020480000200948804709480047C5
:1017C000FEE7FEE7FEE7FEE7FEE7FEE7FEE7FEE7F1
:1017D000FEE7FEE704480549054A064B704700004E
:1017E00089070008310100087001002070070020FF
:1017F000700300207003002010B50446C7488442DF
:1018000008D10121042000F01BFB0021042000F07E
:1018100017FB46E0C248844208D10121082000F0AD
:101820000FFB0021082000F00BFB3AE0BD4884428A
:1018300008D10121102000F003FB0021102000F04E
:10184000FFFA2EE0B848844208D10121202000F0A0
:10185000F7FA0021202000F0F3FA22E0B348844296
:1018600008D10121402000F0EBFA0021402000F0D7
:10187000E7FA16E0AE48844208D10121802000F04A
:10188000DFFA0021802000F0DBFA0AE0A948844258
:1018900007D10121801500F0D3FA0021A01500F036
:1018A000CFFA10BD10B50121084600F0C9FA002199
:1018B000012000F0C5FA10BDF0B50022002300247D
:1018C00000250026002791F803C00CF00F0291F8C4
:1018D00003C01CF0100F03D091F802C04CEA0202C2
:1018E000B1F800C01CF0FF0F31D0066800242BE0D7
:1018F0004FF0010C0CFA04F5B1F800C00CEA050336
:10190000AB4220D1A5004FF00F0C0CFA05F7BE43F7
:1019100002FA05FC4CEA060691F803C0BCF1280F58
:1019200006D14FF0010C0CFA04FCC0F814C00AE018
:1019300091F803C0BCF1480F05D14FF0010C0CFA2F
:1019400004FCC0F810C0641C082CD1D30660B1F8A8
:1019500000C0BCF1FF0F34DD466800242EE004F126
:10196000080C4FF0010E0EFA0CF5B1F800C00CEAAD
:101970000503AB4221D1A5004FF00F0C0CFA05F77F
:10198000BE4302FA05FC4CEA060691F803C0BCF11E
:10199000280F05D104F1080C0EFA0CFEC0F814E073
:1019A00091F803C0BCF1480F07D104F1080C4FF0C7
:1019B000010E0EFA0CFEC0F810E0641C082CCED309
:1019C0004660F0BD4FF6FF71018002218170042155
:1019D000C17070470246002093680B4201D001207D
:1019E00000E0002070470146886880B270470246D8
:1019F0000020D3680B4201D0012000E00020704796
:101A00000146C86880B27047016170474161704704
:101A10000AB1016100E041617047C16070474FF455
:101A200080320A4382618161826182698269704782
:101A30000022414B1A684FF680731A4042EA0012A6
:101A40000A433D4B1A6070473C49C8617047F0B586
:101A5000002200230024002500F00046B6F1004FCC
:101A600002D1354EF46901E0334E7468C0F303458A
:101A700082B200F44016B6F5401F08D124F070641D
:101A80002D4E766826F070662B4F7E6012E000F4D3
:101A90008016B6F5801F06D1032606FA05F39C438F
:101AA00044F0706406E0460D360102FA06F6B443CF
:101AB00044F0706421B1460D360102FA06F6344353
:101AC00000F00046B6F1004F02D11B4EF46101E078
:101AD000194E7460F0BD30B500228B071C0F0F2328
:101AE00003FA04F2144B08338C1053F82440944347
:101AF0008D1043F825408C1053F824308C07240FA8
:101B000000FA04F423430C4C08348D1044F82530BB
:101B100030BD0A49DC310860704700000008014010
:101B2000000C014000100140001401400018014069
:101B3000001C014000200140000001400000204244
:101B4000DB48006840F00100D94908600846406859
:101B5000D8490840D649486008460068D649084038
:101B6000D34908600846006820F4802008600846D1
:101B7000406820F4FE0048604FF41F008860704702
:101B8000CB49096821F48031C94A116011460968BE
:101B900021F480211160B0F5803F03D0B0F5802F93
:101BA0000ED106E0C249096841F48031C04A116093
:101BB00007E0BF49096841F4A021BD4A116000E077
:101BC00000BF00BF704710B501460022002300206F
:101BD0004A11012A02D1B64C236806E0022A02D13A
:101BE000B34C236A01E0B24C636A01F01F02012486
:101BF00094401C4201D0012000E0002010BD70B5CF
:101C000000240025002600BF3120FFF7DCFF064638
:101C1000641CB4F5A06F01D0002EF5D03120FFF781
:101C2000D2FF08B1012500E00025284670BD002143
:101C30009F4A116821F0F80141EAC0011160704724
:101C40009E49086070470022994B5A6822F47C1222
:101C500040EA01031A43964B5A6070479749086659
:101C600070470021924A516821F0030101435160FD
:101C700070478F48406800F00C00704700218C4A84
:101C8000516821F0F0010143516070470021884AFA
:101C9000516821F4E0610143516070470021844A9A
:101CA000516821F4605141EAC0015160704729B187
:101CB0007F4A527A02437E4B5A7206E07C4A527A3D
:101CC000C343DBB21A407A4B5A7270477B49D83112
:101CD000086070470021764A516821F44041014371
:101CE000516070470021724A20321170704A82F8A8
:101CF0002010012802D004280AD104E001216C4AF6
:101D00002032117005E00521694A2032117000E08F
:101D100000BF00BF70476A49086070476449096A9C
:101D20000143634A1162704765494439086070474E
:101D300030B500210022002300245D4D6D6805F0C0
:101D40000C0121B1042905D0082923D105E05D4DFE
:101D5000056022E05B4D05601FE0554D6D6805F4A0
:101D60007012534D6D6805F48033022505EB9242E5
:101D70001BB9554D554305600BE04D4D6D6815F48D
:101D8000003F03D0504D5543056002E04D4D554393
:101D9000056002E04B4D056000BF00BF444D6D681B
:101DA00005F0F0010909494D6C5C0568E5404560A6
:101DB0003F4D6D6805F4E061090A444D6C5C45686F
:101DC000E54085603A4D6D6805F46051C90A3F4DA4
:101DD0006C5C4568E540C560354D6D6805F4404173
:101DE000890B3A4D10356C5CC568B5FBF4F505619F
:101DF00030BD29B12E4A526902432D4B5A6104E08D
:101E00002B4A526982432A4B5A61704729B1284AAA
:101E100092690243264B9A6104E0254A9269824303
:101E2000234B9A61704729B1214AD2690243204B62
:101E3000DA6104E01E4AD26982431D4BDA617047C1
:101E400029B11B4AD2680243194BDA6004E0184AF0
:101E5000D2688243164BDA60704729B1144A12697E
:101E60000243134B1A6104E0114A12698243104B7A
:101E70001A61704712494039086070470F49C864B9
:101E800070470B49C87170470948406A40F080703C
:101E900007494862704701460020054A92680A4295
:101EA00001D0012000E0002070470149887270478E
:101EB000001002400000FFF8FFFFF6FE0000424263
:101EC0008004424200127A0000093D0034000020E4
:101ED00010B50446FB48844209D101218803FFF76D
:101EE000AFFF00214FF48040FFF7AAFF32E0F64831
:101EF000844209D101214804FFF7AFFF00214FF4CC
:101F00000030FFF7AAFF25E0F048844209D1012103
:101F10008804FFF7A2FF00214FF48020FFF79DFF08
:101F200018E0EB48844209D10121C804FFF795FF6E
:101F300000214FF40020FFF790FF0BE0E5488442BA
:101F400008D101210805FFF788FF00214FF4801018
:101F5000FFF783FF10BD2DE9F04786B004460D461C
:101F60000026002700BFB146B246A88900B100BFD5
:101F7000A246268A4CF6FF700640E8880643268271
:101F8000A6894EF6F3100640A88829890843698976
:101F900008430643A681A68A4FF6FF400640A8895B
:101FA0000643A68201A8FFF7C3FE5446C5488245F2
:101FB00001D1049F00E0039FA08910F4004F08D0D6
:101FC00007EBC70000EB071029684900B0FBF1F8E8
:101FD00007E007EBC70000EB071029688900B0FB9A
:101FE000F1F86420B8FBF0F006013009642101FB30
:101FF0001089A08910F4004F09D0322101EBC900EB
:102000006421B0FBF1F000F00700064308E0322144
:1020100001EB09106421B0FBF1F000F00F00064362
:10202000268106B0BDE8F0874FF41651016000210B
:102030008180C18001810C21418100218181704713
:1020400010B50022028A4FF2FF031A400B884C8819
:1020500023438C882343CC8823431A43028210BD38
:102060000021018041808180C180704721B1828937
:1020700042F40052828104E082894DF6FF731A40D7
:1020800082817047F0B50024002500260023A1F5C9
:1020900010676A3F00D100BF0346C1F3421401F04C
:1020A0001F05012707FA05F6012C01D10C3304E0C6
:1020B000022C01D1103300E014331AB11F683743EA
:1020C0001F6002E01F68B7431F60F0BD10B51AB172
:1020D000838A0B43838204E0838ACC43A4B22340E7
:1020E000838210BD028A4FF6F0731A400282028A80
:1020F0000A430282704782894FF2FF731A4082813D
:1021000082890A438281704721B1828942F00202AA
:10211000828104E082894FF6FD731A408281704704
:10212000028A4FF6DF731A400282028A0A43028251
:10213000704721B1028A42F48042028204E0028A9E
:102140004BF6FF731A4002827047C1F30802828087
:10215000704701468888C0F308007047818941F0C4
:10216000010181817047028BD2B20283028B42EA65
:10217000012202837047028B02F47F420283028BAA
:102180000A430283704721B1828A42F02002828290
:1021900004E0828A4FF6DF731A408282704721B1D1
:1021A000828A42F01002828204E0828A4FF6EF7344
:1021B0001A408282704721B1828A42F008028282EC
:1021C00004E0828A4FF6F7731A408282704721B189
:1021D000828942F40042828103E08289C2F30E02C6
:1021E0008281704721B1828A42F40062828204E0D7
:1021F000828A4FF2FF731A4082827047828A4FF6BA
:10220000FB731A408282828A0A438282704721B11C
:10221000828A42F00202828204E0828A4FF6FD73D3
:102220001A408282704702460020B1F5007F00D13B
:1022300000BF13880B4201D0012000E0002070474E
:1022400001F40072B2F5007F00D100BFCA430280E2
:10225000704770B502460023002400250020A1F538
:1022600010666A3E00D100BFC1F3421501F01F04A1
:10227000012606FA04F4012D02D19689344006E0C5
:10228000022D02D1168A344001E0968A34400B12A6
:10229000012606FA03F31688334014B10BB101206E
:1022A00000E0002070BD10B500220023A1F51064ED
:1022B0006A3C00D100BF0A1201249440A3B2DC435F
:1022C000048010BD00380140004400400048004038
:1022D000004C00400050004032490143324A116036
:1022E000704770B5002100230F22C4780CB32E4C28
:1022F000246804F4E064C4F5E064210AC1F1040335
:10230000CA40447804FA03F1847814402143090157
:10231000264C0678A155047804F01F050124AC4032
:1023200005786D114FF0E02606EB8505C5F80041F4
:1023300009E0047804F01F040125A5401C4C067830
:10234000761144F8265070BD1A4A0A400243164BD3
:102350001B1F1A60704741B1134A121D12680243D5
:102360004FF0E023C3F8102D07E00F4A121D12684A
:1023700082434FF0E023C3F8102D7047042808D1A2
:102380004FF0E021096941F004014FF0E0221161B2
:1023900007E04FF0E021096921F004014FF0E0224D
:1023A000116170470000FA050CED00E000E400E068
:1023B00080E100E080FFFF1F10B50446F74884422B
:1023C00008D101214015FFF73BFD00216015FFF703
:1023D00037FD17E0F248844208D101210015FFF7CC
:1023E0002FFD00212015FFF72BFD0BE0ED48844267
:1023F00008D10121C803FFF723FD00214FF400405D
:10240000FFF71EFD10BD30B5002200234268E64CE8
:1024100022400D790C6844EA052422434260826818
:10242000E24C2240D1E902542C434D7944EA450460
:1024300022438260C26A22F470020C7C641EE4B201
:10244000234342EA0352C26230BD002101600171A0
:1024500041718160C16001210174704721B18268BE
:1024600042F00102826003E0826822F00102826091
:10247000704721B1826842F48072826003E0826812
:1024800022F480728260704710B50023CBB21AB17B
:1024900044681C43446002E044689C43446010BDAF
:1024A000816841F0080181607047014600208A6818
:1024B00012F0080F01D0012000E000207047816871
:1024C00041F0040181607047014600208A6812F0E3
:1024D000040F01D0012000E00020704721B1826884
:1024E00042F4A002826003E0826822F4A0028260CB
:1024F0007047014600208A6812F4800F01D0012045
:1025000000E00020704710B500220023426822F44A
:1025100060424B1E42EA4332426010BD21B1426824
:1025200042F40062426003E0426822F400624260CA
:102530007047F0B500240025092911DDC468A1F118
:102540000A0606EB4607072606FA07F5AC43A1F193
:102550000A0606EB460603FA06F52C43C4600CE0B7
:10256000046901EB4107072606FA07F5AC4301EBC6
:10257000410603FA06F52C430461072A0FDA446B7F
:10258000561E06EB86071F2606FA07F5AC43561EB5
:1025900006EB860601FA06F52C43446322E00D2A79
:1025A0000FDA046BD61F06EB86071F2606FA07F51F
:1025B000AC43D61F06EB860601FA06F52C430463EE
:1025C00010E0C46AA2F10D0606EB86071F2606FA84
:1025D00007F5AC43A2F10D0606EB860601FA06F5F7
:1025E0002C43C462F0BD21B1826842F48012826043
:1025F00003E0826822F48012826070470146C86C52
:1026000080B2704765484C300068704721B142681D
:1026100042F48062426003E0426822F480624260D9
:10262000704721B1426842F48052426003E0426840
:1026300022F48052426070470022826822F4E04215
:102640000A438260704721B1826842F4004282608E
:1026500003E0826822F400428260704721B1826800
:1026600042F40212826003E0826822F40212826065
:102670007047014600208A6812F4001F01D0012033
:1026800000E000207047F0B500240025002609294D
:1026900011DDC468A1F10A0707EB470C072707FA09
:1026A0000CF5AC43A1F10A0707EB470703FA07F55E
:1026B0002C43C4600CE0046901EB410C072707FAC6
:1026C0000CF5AC4301EB410703FA07F52C43046119
:1026D000846BC4F30156D71C06F1010CA7EB0C0761
:1026E00007EB870C1F2707FA0CF5AC43D71C06F144
:1026F000010CA7EB0C0707EB870701FA07F52C4342
:102700008463F0BD10B500220023826B22F44012D6
:102710004B1E42EA0352826310BD10B500230346EC
:1027200018460B441A6010BD0246002313461A4691
:1027300001F128000344186880B270470022426803
:102740001B4B1A400A4342607047416282627047E5
:102750000022426822F01F020A434260704740B1E3
:102760000E490831096841F40001124AC2F8081400
:1027700007E00A490831096821F400010D4AC2F84E
:10278000081470470246002013680B4201D0012054
:1027900000E000207047CA430260704700240140F7
:1027A00000280140003C0140FFFEF0FFFDF7F1FF73
:1027B000FFFD3FFF0020014070B5024600200023CE
:1027C00000240B125568CEB205EA060415681D42B6
:1027D00002D00CB1012000E0002070BD00220A12DE
:1027E000D34303607047000010B50446F8488442A4
:1027F00009D101214805FFF730FB00214FF40010FB
:10280000FFF72BFB08E001218805FFF726FB0021DD
:102810004FF48000FFF721FB10BD2DE9F04385B098
:1028200004460D46002600274FF00408DFF8A49365
:10283000A6884FF6C0710E406846FFF779FADDF8BA
:102840000890E548B9FBF0F087B23E43A6802088A7
:102850004FF6FE71084020800026E0492868884233
:102860000FD828684000B9FBF0F01FFA80F8B8F1E3
:10287000040F01DA4FF0040846EA0806781C2084A9
:1028800029E0E888A0F53F41FF3907D1286800EB2F
:102890004000B9FBF0F01FFA80F80AE0286800EB6E
:1028A000C00101EB0010B9FBF0F01FFA80F848F40A
:1028B0008048C8F30B00002801D148F0010848F413
:1028C000004006434FF4967078434FF47A7190FBC2
:1028D000F1F0401C2084A683208840F00100208075
:1028E00026884FF6F5300640A888698908430643D4
:1028F0002680A88929890843208105B0BDE8F08396
:1029000041F288310160002181804BF6FF71C18066
:102910000021018141814FF480418181704721B1C3
:10292000028842F00102028004E002884FF6FE7342
:102930001A400280704721B1828842F4006282808E
:1029400004E082884FF2FF731A408280704721B101
:10295000828842F48052828004E082884EF6FF73BF
:102960001A408280704721B1028842F4807202804E
:1029700004E002884FF6FF631A400280704721B1DD
:10298000028842F40072028004E002884FF6FF538E
:102990001A400280704721B1028842F480620280AE
:1029A00004E002884FF6FF331A400280704700228D
:1029B00082894FF601731A4001F0FE031A438281A7
:1029C000704721B1828942F00102828104E082894C
:1029D0004FF6FE731A408281704721B1028842F09F
:1029E0004002028004E002884FF6BF731A40028062
:1029F000704710B51AB183880B43838004E0838845
:102A0000CC43A4B22340838010BD018270470146AD
:102A1000088AC0B2704712B141F0010102E04FF6DE
:102A2000FE731940018270470246002313461A467E
:102A30000B441888704721B1028842F4004202809A
:102A400003E00288C2F30E0202807047B1F5006F06
:102A500004D1028842F40062028004E002884FF24E
:102A6000FF731A4002807047B1F5005F04D10288FD
:102A700042F40052028004E002884DF6FF731A40CF
:102A80000280704721B1028842F48052028004E043
:102A900002884EF6FF731A4002807047B1F5006F4E
:102AA00004D1028842F40062028004E002884FF2FE
:102AB000FF731A400280704721B1028842F0200261
:102AC000028004E002884FF6DF731A4002807047EC
:102AD0000146088B0012704721B1028842F01002B3
:102AE000028004E002884FF6EF731A4002807047BC
:102AF00021B9028842F08002028004E002884FF689
:102B00007F731A4002807047B1F5804F05D0828BE9
:102B10004BF6FF731A40828303E0828B42F48042BB
:102B20008283704770B505460024002200230020F0
:102B3000AA8A2B8B1B0442EA030626F07F4404EA90
:102B400001068E4201D1012000E0002070BD10B5C9
:102B50000346002000210022998A1A8B120441EAC0
:102B6000020424F07F4010BD30B50246002000244E
:102B7000002313460C0F21F07F410CB1143301E008
:102B8000090C18331D680D4201D0012000E000201F
:102B900030BD002221F07F42D3438382704730B59D
:102BA000024600200023948801F0E06504EA154302
:102BB00021F07F41948A0C4202D00BB1012000E049
:102BC000002030BD002221F07F42D3438382704732
:102BD0000054004000127A0040420F00A08601001D
:102BE0000020484908604849C1F8040445490831B3
:102BF0000860091D08604548424914310860704763
:102C0000002140498279002A40D03F4AD2F800246E
:102C100003689A433C4BC3F800241A46D2F80424B4
:102C200003689A430B1D1A60027911440A6803680D
:102C30001A430A60344AD2F8082403689A43324B94
:102C4000C3F808241A46D2F80C2403689A432D4B83
:102C50000C331A604279102A10D12B4AD2F808247A
:102C600003681A43284BC3F808241A46D2F80C24E8
:102C700003681A43244BC3F80C240DE02149427920
:102C800011440A6803681A430A6005E00279114496
:102C90000A6803689A430A60704700210160017165
:102CA0000C2141710021817170471649103109686A
:102CB0000143154AC2F81014704701460020114A1A
:102CC000143212680A4201D0012000E0002070474F
:102CD0000C49143108607047014600200022094B5E
:102CE0001B6803EA0102084BD3F814340B4202D0EC
:102CF0000AB1012000E00020704702491431086049
:102D0000704700000004014000000140FFFF0F0079
:102D1000704700000FB4054A054910B503AB79446C
:102D2000029800F028FB10BC5DF814FB3000002076
:102D300055E9FFFF0FB408491CB506AB6A46794454
:102D40000090059800F017FB0020694600F026FB74
:102D50001CBC5DF814FB00005B06000070B5044667
:102D6000856900683026C10600D42026C00709D135
:102D700006E0D4E9012130469047206A401C2062D9
:102D80006D1EF6D570BD70B5044685690068C00734
:102D900009D006E0D4E9012120209047206A401C98
:102DA00020626D1EF6D570BD70B505460C46012A31
:102DB00001D101200BE02868800600D5EA690020D7
:102DC00000E0401C904202D2215C0029F9D1A9699F
:102DD0002618091AA961296A014428462962FFF7C1
:102DE000BDFF04E0D5E9012114F8010B9047B4427E
:102DF000F8D32846FFF7C7FF70BD2DE9F05F4FF00D
:102E0000000B044689464FF0010AC0F820B0204666
:102E1000E168884700287DD0252802D0D4E9012127
:102E200073E0E168204600268847C4F81CB00546D8
:102E30000027C4F818B02A2D10D1204659F8041BD9
:102E400004EB87029161E1688847012F054627D18D
:102E5000E06900282FDA26F020062CE0A5F13000EA
:102E600052460A28014619D2C2B104EB87009246A5
:102E70008046816108E0D8F8180000EB800005EB7F
:102E800040003038C8F818002046E16888470546F9
:102E9000303851460A2801D20029ECD1012F0AD03E
:102EA0002E2D08D12046E16888477F1C0546022F59
:102EB00046F02006BFDBA069002803DA404246F056
:102EC0000106A061F00701D026F01006CDB1A5F1F2
:102ED0004100192802D8203546F400664A462946A2
:102EE000204626604E46FDF75DF958B1012802D113
:102EF00006F104098BE7F61D26F0070000F108092A
:102F000085E707E0D4E9012128469047206A401C64
:102F100020627CE7206ABDE8F09F704770477047E9
:102F2000704770472DE9FF4F0C4698468DB0D2E9A7
:102F30000010DDF868A0CDE90810C0F30A550DB9FE
:102F40004FF0FF35002108464FF00000099900F4CA
:102F50004000002905DA00EB80004FF4400101EA4F
:102F600050004FEA905BBBF1010F01DD4FF0FF3BDA
:102F7000DDE9080150EA410016D1BAF1010F02D192
:102F80006FEA080207E0302101E02154401C40456F
:102F9000FBDB40460022002121540D99C1E9010AC2
:102FA0000A6011B0BDE8F08FA5F2FF3544F610506D
:102FB0004543CBF100000B904FEA2549BAF1000FD1
:102FC00003D1A9EB08056D1C01E0C8F100050B9ABF
:102FD000002D00DC5A46294601DAC5F1000103A89C
:102FE00000F082FADDE9081000F05EFBA0F5005069
:102FF0001F388DE807000398002D09DD42F21F01FC
:103000005A46084403A90390684600F0BEFD08E054
:10301000A0F500505A461F3803A90390684600F0F7
:10302000C8FD8DE807000004000C03D04FF0FF3509
:103030006E0801E00E461546BAF1000F25D147464D
:1030400007E03146284600F0CBF9303205460E46FF
:10305000E2557F1EF5D50023012786EA030185EAA4
:1030600003000843CDF81C8003D0002709F10100BC
:1030700005E02078302803D10027A9F1010081461E
:10308000002FCDF8189099D034E000200A90074620
:103090000AE0112F0FDA3146284600F0A1F930324C
:1030A00005460E46E2557F1C002386EA030185EAA9
:1030B00003000843EDD1002386EA030185EA0300FB
:1030C000084310D13846002104E0235C625C63545D
:1030D000491C2254401E8142F7DBA7EB0800401E2A
:1030E000CDE9060706E00A9820B94FF011084FF025
:1030F000000A63E7079A0020A0540D98C0F808A0C2
:1031000007994160069901604BE72DE9F04F0446AD
:103110008846D21D22F0070091B0D0E90010CDE919
:1031200002100146029800F07AFE0399CA0F4FF090
:103130002D0106D122682B21930702D4202101EA18
:10314000C20103288B4601D0072806DB5B460246F6
:103150004146204600F08AF905E12068800601D545
:10316000E76900E006271120B8F1650F1ED0B8F11D
:10317000660F29D0B8F1670F62D1012F00DA01275D
:103180000023112F009300DC3846034602AA06A94B
:103190000EA8FFF7C7FE20683D460026000734D47E
:1031A0000F98A84200DA054606A827E00023112F51
:1031B000009300DA781C034602AA06A90EA8FFF7BE
:1031C000B1FE00267D1C26E001234FF0004902AA33
:1031D00006A90EA800933B46FFF7A4FEDDE90F50B9
:1031E000002610B90E99781C0D18781B02D47D1C8E
:1031F000C0F1FF36A5EB070A22E06D1E012D04DDAC
:10320000411911F8011C3029F7D00E98B84202DAA2
:1032100010F1040F03DA4FF0010A0E980FE00028B6
:1032200002DC2D1A064404E0401CA84201DD0E9D7C
:103230006D1C0E98801B00F1010A4FF00040814682
:103240002068000703D4AA4501DB4FF0FF3A0020B5
:10325000B9F1004F0DF117078DF8170024D04FF08A
:1032600002082B20B9F1000F01900BDA2D20C9F1D3
:103270000009019006E0484600F09EF93031814691
:1032800007F8011DB8F10000A8F10108F3DCB9F15D
:10329000000FF0D1019807F8010D216845200905BC
:1032A00000D4652007F8010D04A8C01B00F1070831
:1032B0005FEA0B0000D00120411901EBEA7101EB3C
:1032C0000800A169081A401EA0612068C00602D447
:1032D0002046FFF743FDBBF1000F06D05846D4E966
:1032E00001219047206A401C20622068C00625D535
:1032F0002046FFF733FD21E0002E07DB0F98B04298
:1033000004DD06A8D4E90121805D02E0D4E90121B1
:1033100030209047206A401C2062761CAAF10100F0
:103320005FEA000A0AD100F055F8C0680168405C05
:10333000D4E901219047206A401C2062281EA5F193
:103340000105D9DC07E0D4E9012117F8010B90470A
:10335000206A401C2062B8F10000A8F10108F2DCEC
:103360002046FFF710FD02201BE6000001694A1C01
:1033700002610878704710B50C46194690B0CDE947
:10338000024200220692044A7A44CDE9042001A8B0
:10339000FFF733FD10B010BDE1FFFFFF0A6802F830
:1033A000010B0A60704710B5436913B1AFF3008099
:1033B00001E0FFF7F9FC012010BD126800F12401C3
:1033C0000A7000224A700122EDE711684FF0FF32C7
:1033D000E9E7000001487047704700003001002015
:1033E00030B5B0F10A024FEA900E71F100034EEAD7
:1033F000817EB0EB0E0061EB91014FEA101E4EEAA8
:10340000017E10EB0E0041EB11114FEA102E4EEA37
:10341000016E10EB0E0041EB11214FEA104E4EEA07
:10342000014E10EB0E0041EB1141401841F100013B
:103430004FEAD00040EA41704FEAD10110EB80051D
:103440004FEA810444EA907444EB01046D1944EBA3
:103450000404521BA3414FF0000348BF0A3200D5B9
:1034600030BD401C41F1000130BD00002DE9F041AC
:1034700004461F4603260168072A01F4006003DBA7
:1034800015A520B915A502E015A500B915A521F0CF
:1034900010002060A069C01EA0610FB1401EA06195
:1034A0002046FFF75BFC0FB9206A06E0D4E9012152
:1034B00038469047206A401C2062C01C206204E00D
:1034C000D4E9012115F8010B9047761EF8D2204669
:1034D000FFF759FCBDE8F0814E414E006E616E0071
:1034E000494E4600696E66002DE9F0471746814651
:1034F0008AB0304A7A4407A838CA01F5DC511B313A
:1035000038C038CA04A8372238C091FBF2F0A0F1C5
:10351000800502FB10141B3C02D56442012000E030
:103520000020DFF890A080460026FA44AAF1B20AF3
:103530000DE0E00709D03A4606EB46000AEB8001B1
:1035400007A800F036FB07AB07C36410761C002CFD
:10355000EFD1DFF860A001AEFA44AAF1A40A16E0A8
:10356000E80712D00AEB041090E80E0086E80E007F
:10357000C068F84202D10398384403903A4601A942
:1035800004A800F016FB04AB07C36D10641C002DEB
:10359000E6D13A46B8F1000F07A904A802D000F01E
:1035A000F4FA01E000F005FBA9E807000AB0BDE865
:1035B000F0870000701900004FF00A01B0FBF1F233
:1035C00002FB1101104670470048704710010020AF
:1035D0007546FFF7F9FFAE4605006946534620F0F1
:1035E0000700854618B020B5FEF7F4F8BDE8204086
:1035F0004FF000064FF000074FF000084FF0000BAF
:1036000021F00701AC46ACE8C009ACE8C009ACE861
:10361000C009ACE8C0098D4670470446AFF300808E
:103620002046FCF7E1FD00004FF0013C50F8042B70
:1036300051F8043B9A4221D1A2EB0C03934313EAC5
:10364000CC1317D150F8042B51F8043B9A4215D1F2
:10365000A2EB0C03934313EACC130BD150F8042BC9
:1036600051F8043B9A4209D1A2EB0C03934313EAAD
:10367000CC13DBD04FF0000070470000D01A01BA25
:10368000B1FA81F101F0180122FA01F0CB40C1F149
:103690002001DBB2C0B2C01A2CFA01F3D11A914357
:1036A00011EAC311E6D170475FEA400C08BF91F000
:1036B000000F4FEA8C234FEAC12243EA51514FEAEF
:1036C0001C5018BF00F5F0404FEA300018BF41F021
:1036D00000415FEA6C5C00F02980BCF1FF3F08BF4D
:1036E00040F080407047130C06BF12044FF0100CDE
:1036F0004FF0000C130E04BF12020CF1080C130F54
:1037000004BF12010CF1040C930F04BF92000CF1E2
:10371000020CD30F04BF52000CF1010C11464FF004
:103720000002A0F11F00A0EB0C00704711F0004F49
:1037300008BF704731F000413FF4D5AF0B0C06BF16
:1037400009044FF0100C4FF0000C0B0E04BF0902DF
:103750000CF1080C0B0F04BF09010CF1040C8B0FCA
:1037600004BF89000CF1020CCB0F04BF49000CF11F
:10377000010CCCF12003A0EB0C0022FA03F302FAB7
:103780000CF241EA030100F10100704720F07F4C88
:1037900080EA030023F07F47ACEB070303F57C537B
:1037A00000F0004003F1FF032DE980494FEA154B7B
:1037B00009B44FEA144325EA0B4E24EA03480FF2FA
:1037C000042606EB132749083E785FEA320203FB22
:1037D0000667C7F5000707FB06F64FEA54374FEABE
:1037E000D64606F1020607FB066CCCF1005C4FEAF8
:1037F0001C472CEA074C07FB06F40CFB06F504EB10
:1038000015464FEA961634BF00204FF000404FEAAD
:10381000D13706FB07FC4FEA1C4C0CFB0BF7D21B05
:1038200003FB0CF761EB07010CFB0EF7B0EB074055
:1038300072EB17420CFB08F734BFA2EB0742B2EB66
:10384000074261EB17414FEA0C444FEA910706FB30
:1038500007FC4FEA1C4C0CFB0BF7B0EBC74072EBBC
:10386000573203FB0CF734BFA2EBC742B2EBC7429F
:1038700061EB57310CFB0EF7B0EBC70072EB5772E0
:103880000CFB08F734BFA2EBC702B2EBC70261EB37
:103890005771039F4FEA816141EA921104EBCC0416
:1038A0004FEAD1374FEA826206FB07FC42EA9012E8
:1038B0004FEA80604FEA1C4C0CFB0BF7D21B03FB5A
:1038C0000CF761EB07010CFB0EF7B0EB074072EB56
:1038D00017420CFB08F734BFA2EB0742B2EB0742DA
:1038E00061EB17414FEA8C554FEA910704EB9C249A
:1038F00006FB07FC4FEA1C4C0CFB0BF7B0EBC74078
:1039000072EB573203FB0CF734BFA2EBC742B2EBAA
:10391000C74261EB57310CFB0EF7B0EBC70072EBFF
:1039200057720CFB08F734BFA2EBC702B2EBC70219
:1039300061EB577115EB4C254FEA816141EA921119
:103940004FEA82624FEAD13742EA901206FB07FC47
:1039500044F100044FEA80604FEA1C4C0CFB0BF76B
:10396000D21B03FB0CF761EB07010CFB0EF7B0EB6E
:10397000074072EB17420CFB08F734BFA2EB07427B
:10398000B2EB074261EB174115EB1C154FEA813191
:1039900041EA92414FEA823242EA90424FEA803055
:1039A0004FEA0C7644F1000448EA03434EEA0B4820
:1039B0004FF0000EB2EB080C71EB030724BF624618
:1039C00039464EEB0E0E4FF0000B001852414941A4
:1039D0004BEB0B0BB2EB080C71EB03077BF1000B0D
:1039E00024BF624639464EEB0E0E4FF0000B001816
:1039F000524149414BEB0B0BB2EB080C71EB030747
:103A00007BF1000B24BF624639464EEB0E0E51EAA5
:103A1000020718BF46F0010616EB0E7655F10002BC
:103A200054F1000103D5BDE88901BDE80088BDE877
:103A30008901BDE80048B619524141EB0101A3F1EB
:103A40000103704780807F7E7D7C7B7A79787776F2
:103A500076757473727171706F6E6E6D6C6C6B6A6B
:103A60006A69686867666665646463636261616009
:103A7000605F5F5E5E5D5D5C5C5B5B5A5A59595886
:103A800058575756565555555454535352525251F0
:103A9000515050504F4F4F4E4E4D4D4D4C4C4C4B46
:103AA0004B4B4A4A4A49494948484847474747468D
:103AB00046464545454444444443434343424242C9
:103AC00042414141002B26D4770021D01CB54FEA5A
:103AD000370703B44FF010004FF010014FF0000013
:103AE0000FBCBDE810400BF1010BBBF1010F08BF8B
:103AF0005FEA170722BF12F1010211F101014FF035
:103B0000004143F1000300F0004043EA0000704729
:103B1000F9D35708DAE746EA064613F1400F4FEAB1
:103B200016461FDD13F1200FDFBF16430A460021A2
:103B300020335B42C8D0C3F1200746EA064602FAAA
:103B400007F74FEA164646EA0706C3F1200722FAAE
:103B500003F201FA07F721FA03F14FF0000342EAFA
:103B60000702B1E746EA020646EA06464FEA16466B
:103B700046EA0106BCBF46EA0646360C4FF0000393
:103B80004FF000024FF000019EE72DE9C048934638
:103B900030B491E8380007C831EA400C48BF34EA35
:103BA000430C03D5FFF7F2FDFFF78CFFF0BCBDE837
:103BB00000882DE9C048934630B491E8380007C822
:103BC00010F0804F08BF13F0804F03D100F005F8CC
:103BD000FFF778FFF0BCBDE8008820F07F4780EA5F
:103BE000030023F07F4C07EB0C03A3F57C5300F09C
:103BF0000040A3F1FE0392F0000F00F0B38095F0B7
:103C0000000F00F077802DE901494FEA11404FEA9B
:103C1000144621EA004800FB06FC24EA064708FB9C
:103C200006F607FB08F800FB07F718EB06484CEB15
:103C3000164C4FEA124B18EB07484FEA15464CEB6F
:103C4000174022EA0B4E0BFB06FC25EA06470EFB4B
:103C500006F607FB0EFE0BFB07F71EEB064E4CEBC2
:103C6000164C4FF000061EEB074E4CEB174B18EBB3
:103C70000B0840F1000018EB0E0B58EB000840F168
:103C800000008F1A4FF000013CBFC943661B14BFF0
:103C9000B5EB040C00213CBFC943F61B4FEA1744A7
:103CA0004EEA8E0E27EA04454FEA1C4704FB0762E2
:103CB0002CEA074C05FB07F70CFB05F604FB0CFC94
:103CC00016EB074642EB174216EB0C4642EB1C4242
:103CD0001BEB060658EB0202414146EA9E0601D55F
:103CE000BDE80189B619524141EB0101A3F101037D
:103CF000BDE801894FEA14454FEA114724EA054619
:103D000021EA074C05FB07F406FB07F70CFB06F15D
:103D100005FB0CFC11EB074144EB17444FEA12473B
:103D200011EB0C4144EB1C4422EA074C05FB07F263
:103D300006FB07F70CFB06F605FB0CFC16EB07462B
:103D400042EB174216EB0C4642EB1C456A1854F145
:103D5000000148BF7047B619524141EB0101A3F180
:103D60000103704795F0000F37D04FEA11424FEA38
:103D7000144721EA024624EA074C02FB07F106FB3E
:103D800007F70CFB06F402FB0CFC14EB074441EBB9
:103D900017414FEA154714EB0C4441EB1C4125EA4F
:103DA000074C02FB07F506FB07F70CFB06F602FBC8
:103DB0000CFC16EB074645EB174516EB0C4645EB9E
:103DC0001C42121951F1000148BF7047B619524107
:103DD00041EB0101A3F1010370474FEA14454FEA9B
:103DE000114724EA054621EA074C05FB07F106FBCB
:103DF00007F70CFB06F24FF0000605FB0CFC12EB7C
:103E0000074241EB174112EB0C4251EB1C4148BFFA
:103E10007047921841EB0101A3F10103704749007B
:103E200050EAC12000D004204A0D01D040F001002A
:103E300040F2FF72B2EB515F01D140F00200012865
:103E400000D105207047000010B500290AD008787D
:103E5000002807D005487844FFF7E6FB002801D08A
:103E6000002010BD0248784410BD00004A10000038
:103E70004210000001F0004321F0004181EA4102BC
:103E800012F0FE4F08BF12F4600F00F02880A1F17D
:103E90006051B1F5801F1BDB02014FF0404C09D887
:103EA00003D208BF4FF0000C0AE000F000521CEBF8
:103EB000820C05D410F100504FF0804C41F100010C
:103EC000B1F17F6F06DA43EAC10343EA50707047ED
:103ED000184670474FF0FF0243EAC250704711F492
:103EE000801F01D118467047DFF818C041EA03016E
:103EF00050EA013240F01080AFF3008021F4E0007E
:103F0000704700008800000402494FF0000000F0F4
:103F100022BF00000000F87F02494FF0000000F0CF
:103F20001ABF00000000F87F00B54FF4001E1EEB22
:103F3000410F08BF002898BF1EEB430F08BF002A9F
:103F400026D85DF804EBAFF3008051EA030C06D4E9
:103F5000994208BF904210D6EFF3008070478B4221
:103F600008BF8242EFF3008020F0104038BF40F0DD
:103F7000004080F3008878BF70474FF0010C38BFD5
:103F8000BCF1020F68BFBCF1000FEFF30080704777
:103F90005DF804EB1CF4502F3FF4B6AF00F00DBFFA
:103FA0004FF0807212EB400F98BF12EB410F1DD8FB
:103FB000AFF3008050EA010204D488420DD6EFF33B
:103FC000008070478142EFF3008020F0104038BF3E
:103FD00040F0004080F3008870474FF0010238BF86
:103FE000022A68BF002AEFF3008070471CF4502FAC
:103FF00000F0A08400F0E1BE70B5DFF8ECC33CEA4D
:10400000111418BF3CEA131400F09B8081EA0305E9
:104010000CEA111444EAD5741CEA131518BF11EA0E
:104020000C1F00F074804FEAC1214FEAC32341EA1C
:10403000505143EA5253A4EB050404F17F7441F05C
:10404000004143F000434FEAC0204FEAC22200F093
:10405000A9F846054FEAD02003EB244340EA41503B
:104060004FEAD12101EB035282EAC47116D05FEA14
:10407000460E38BF4FF0404610D314BF00234FF018
:10408000004350F1000041F1000110EAD37F4FF0EE
:10409000804620EAD37018BF4FF0404691EAC47FB3
:1040A000DFF848E316D412EA0E0F18BF3EEA010EFD
:1040B00010D070BDE50754BF1EF4000F1EF4800F32
:1040C0000ABF4FF080464FF0404610F1010041F129
:1040D0000001E3E7B4F1806FDEBF01F1C04101F000
:1040E0000041002000DC70BDA8BFA1F1C04146F036
:1040F000140CA8BF4CF0805CBDE870406FF000006D
:1041000041EA500181EA10314FF00000704711EA96
:104110000C1F00D00AE013EA0C1F00F03D804FF0A6
:10412000000081EA030101F0004170BD6FF0000062
:1041300081EA030141EA500181EA10314FF00000A9
:1041400070BD4FEA410EBEEB4C1F4FEA430508BF5E
:10415000002898BFB5EB4C1F08BF002ABDE870408F
:10416000DFF88CC23FF6D0AEAFF300804FF4001CF6
:104170001CEB410F09D11CEB430F0FD04B4021F03A
:10418000004148BF41F0004170474FF0000081EA14
:10419000030303F000417047BDE870404FF000009A
:1041A00094497047E0B5054610B40C460FF238113B
:1041B0004FEA430C4FF0010E4FEA9C6C51F82CC0B3
:1041C0004FF00001ACFB02604FF00006ECFB030176
:1041D000001841EB0101301A66EB0101E1FB0C6CA8
:1041E0004FF00001ACFB02604FF00006ECFB030156
:1041F000001841EB0101301A66EB0101E1FB0C6C88
:104200004FF00001ACFB0560ECFB0401A2FB016771
:10421000E3FB006E17EB0E074FF0000EE3FB017E91
:104220004EF1000EB6197F414EEB0E0E764275EB45
:10423000070764EB0E0EECFB0E01ACFB07E64FF03C
:10424000000E801941F10001A2FB0067B619E2FBE4
:10425000017EE3FB007E7F4103FB01EE4EEB0E0E81
:1042600076424FF0000676EB070765EB0E0EACFBCF
:104270000E674FF0000E4FEA857C4FEA9505C01996
:1042800041F1000145EA847549084FEA3000A2FB7C
:1042900000677642E2FB017EE3FB007E7CEB0707D2
:1042A00003FB01EE65EB0E0EB51A77EB03047EF10E
:1042B000000E24BF2E46274650F1000041F10001B8
:1042C000012E38BF012F404141EB010111F0004F99
:1042D00018BF022301D0F0BC00BDF0BC4FF00103B9
:1042E000001841EB010100BDFCC00FFC830F3EF83C
:1042F0005F8D89F4F0F0F0F0B50373EDEAA00EEAFB
:1043000048B4C2E6E3388EE31C3870E0A6C867DD27
:10431000A70D74DAE53594D7037BC7D4D2200DD22C
:10432000A87464CFCCCCCCCCE68745CA7C0CCEC775
:104330007BC865C5C3300CC3C0C0C0C00BFA82BE09
:104340000B6452BCA28B2EBAE00217B8B6600BB653
:10435000B4400BB4C84216B2020B2CB05C414CAE58
:10436000849176ACAAAAAAAA573FE8A839052FA734
:1043700002B57EA53D0AD7A32BC337A2A0A0A0A05B
:10438000E765119F9DD8899D9CC0099CD9E7909AAB
:10439000511A1F99ED25B4976CDA4F964F09F29494
:1043A000C4859A939224499209BCFD90EE23B88F5C
:1043B0006D35788E08CB3D8D8CC0088CFBF2D88A89
:1043C0008940AE89888888885FAB67877D8A4B86FD
:1043D0005308348542082184976E12838220088214
:1043E00008040281000000800000FF070000F07F49
:1043F000140000040000F87F4FEAC12303B40A153B
:1044000043EA505318BF43F000430DD4A2F5607245
:10441000D2F19E0240F32180FF2ACCBF002123FA73
:1044200002F1084602B070474FEA4252520D08BFEF
:1044300023F000434FF00001A2F56072D2F19E021A
:104440000BDBFF2ADCBF23FA02FCA1EB0C010029E5
:10445000DEBF02B008467047FFE703BCDFF830C09C
:10446000012841EB010313F5001F88BF4CF4803C89
:104470003FF652AD3EBF6FEAE17080F000407047FA
:10448000AFF300806FEAE17080F0004070470000F9
:10449000C800020410F0004314BF4142014643F03B
:1044A0008043B1FA81FC03F1F87311FA0CF1A3EB2C
:1044B0000C534FEA415008BF704703EBE1217047AE
:1044C00051EA030C17D41CF5801F58BFBCF5801FA0
:1044D00000F10680994218BF704708BF90427047AC
:1044E00007D711F5801F58BF13F5801F19D49942C3
:1044F0007047894270471CF5801F08D5BCF5801FA6
:10450000F7D58B4218BF704708BF824270474FF4FF
:10451000001C1CEB410F38BF1CEB430F01D28B4238
:104520007047DFF808C0FFF7FFBC00001900160451
:10453000DFF8B4C170B53CEA111E18BF3CEA131E87
:1045400000F0A68081EA03050CEA111E4EEAD57E32
:104550001CEA131518BF11EA0C1F00F08F80AE443F
:1045600021EA4C1123EA4C13AEF17F7E41F4801115
:1045700043F48013A1FB024CA0FB0365361955EBF5
:104580000C05A1FB034C4CF10003A0FB021C16EB35
:104590000C06654153F10003094218BF46F00106BD
:1045A0004FF0140CB3F5007F4CF1000CCCF120045B
:1045B00025FA0CF203FA04F141EA020105FA04F0CB
:1045C00026FA0CF240EA02006FF0030242EB2E42A0
:1045D00016FA04F401EB025585EACE7115D05FEAB4
:1045E000440C38BF4FF040440FD308BF43F00043A2
:1045F00050F1000041F1000110EAD37F4FF08044F8
:1046000020EAD37018BF4FF0404415F0004FDFF898
:10461000DCC017D415EA0C0F18BF3CEA010C11D00E
:1046200070BD5FEACE7454BF1CF4000F1CF4800F01
:104630000ABF4FF080444FF0404410F1010041F1B7
:104640000001E2E7BEF1806FA2BFA1F1C04144F0DA
:10465000130C4CF0805CBDE8704006DA4FF00000AF
:1046600001F1C04101F0004170476FF0000041EAE4
:10467000500181EA10314FF0000070474FEACE71CF
:104680004FF0000070BD4FEACE714FF0000070BDDA
:104690004FEA4105B5EB4C1F4FEA430608BF00281F
:1046A00098BFB6EB4C1F08BF002ABDE87040DFF88A
:1046B00040C03FF629ACAFF300804FF4001CBCEBC8
:1046C000410F98BFBCEB430F0AD84FF0000081EABE
:1046D000030101F0004141F0FE4141F470017047D7
:1046E00004494FF0000070470000FF070000F07F12
:1046F000130000040000F87F094248BF4CF4803CDE
:104700004FF4C0634FEA115203F1010321EA025151
:1047100022F400629A1A48BF6FF0FE0241F4801141
:10472000352A3CD830D0152A1ED3203A0CD900287F
:10473000C2F1200321FA02F001FA03F218BF42F09D
:1047400001024FF0000130E0C2F1000302F120024B
:1047500001FA03F120FA02F241EA020100FA03F23F
:1047600008464FF0000120E0C2F1200310B400FA27
:1047700003F401FA03F320FA02F021FA02F12246CF
:1047800010BC43EA000010E050EA01324FF0000094
:104790004FF000014FF0004218BF521C05E04FF0EF
:1047A00001024FF000014FF000001CF4803F2CF498
:1047B000803C18BF41F00041124208BF70475200D0
:1047C00003D303D0401C41F1000170475FEAAC7293
:1047D000F8D4FAD1401C41F1000120F00100F4E7C7
:1047E0007047704700F5000C1CF0FE4F09D0C11057
:1047F0004FEA407001F1605158BF7047A1F1E041AC
:1048000070471CF4000F08D00146400008BF7047F5
:104810004FF000004FEA30017047DFF814C0420249
:1048200040F08E80AFF3008040F4E0011046704706
:104830001800000490EA010F48BF81F0004100F128
:10484000BA81421A3CBF801A89184FEAD0524FF001
:104850007F4C1CEA410FA2EBD15318BF9CEA026FB8
:1048600000F040804FF0004C4CEA00204CEA01215F
:1048700021FA03FC10EB0C0C23D202F1FF325FEAA9
:104880001C2040EBC25038BF70471CF07F0F4FEA2E
:10489000400C18BFBCF17F4F38BF7047C3F12003F5
:1048A000994008BF20F00100BCF17F4F38BF70472E
:1048B000A0F1C0404FF0FF0141EAD0514FEAC15092
:1048C00070474FEA3C00000A40EBC25028BF1CF082
:1048D000FF0F4FEA400CE1D018BFBCF17F4F38BF4B
:1048E0007047E5E79CEA026F05D010EA5C0F08BF4D
:1048F00000F000407047BCEB410F4FEA400228BF78
:104900009445DFF828C0C0F01580AFF30080B2EB0B
:10491000410F05D012F1807F08BF704708467047ED
:1049200090EA010F58BF704701487047010000042A
:104930000000C07F014800F00EBA00000000C07FF8
:10494000014800F008BA00000000C07F10F00042EB
:1049500018BF404242F08042B0FA80F18840A2EB9A
:10496000C15202F1786208BF7047410642EB202035
:1049700018BF5FF0806C28BF20F0010070474FF037
:104980008042FFF7E9BF000050EA010C00F11380FC
:104990001CF5000F58BFBCF5000F01D488427047CA
:1049A00007D710F5000F58BF11F5000F15D4884236
:1049B0007047894270471CF5000F04D5BCF5000F05
:1049C000F7D5814270474FF0807C1CEB400F38BF19
:1049D0001CEB410F01D281427047DFF808C0FFF79E
:1049E000DFBA0000090016044FF47F0C1CEAD01255
:1049F0001EBF1CEAD11392EA0C0F93EA0C0F00F0D1
:104A00004A8090EA010F48BF42F480724FF0004C98
:104A10004CEA00204CEA01211A44A0FB01C3A2F594
:104A20000002BCF1000F18BF43F0010302F4807CC8
:104A3000B3F1004F38BF5B0042EB2242180A40EB53
:104A4000C25028BF13F07F0F18BFB2F57C0F38BFDC
:104A5000704708BF20F00100B2F57C0F38BF7047E7
:104A60000BD582F0FF0212F5803FC8BF704700F1FE
:104A7000C040D8BF00F00040704700F5000C5FEA6E
:104A80004C0C48BF7047B0F1C0404FF07F404CBF66
:104A900040104008704790EA010F0CEAD11348BF5C
:104AA00042F48072624538BF634504D280EA010057
:104AB00000F0004070474FF0807C1CEB400F98BF27
:104AC0001CEB410F4FF0030C4CF0806C3FF632AF03
:104AD000AFF3008012F47F0F1FBF13F47F0F42F07B
:104AE000FF02D00570470148704700000000C07FFA
:104AF00010B412F47F0F4FEA00204FEA012110D1C9
:104B0000B0FA80F400FA04F0A2EB044213F47F0F31
:104B100002F5803218BF41F0004100D010BC18BF30
:104B2000604740F00040B1FA81F401FA04F1A3EBD0
:104B3000044310BC03F580336047000051EA000CC9
:104B400000F113801CF5000F58BFBCF5000F01D415
:104B50008142704707D711F5000F58BF10F5000FBD
:104B600015D481427047894270471CF5000F04D567
:104B7000BCF5000FF7D5884270474FF0807C1CEBE6
:104B8000410F38BF1CEB400F01D28842704781EAC9
:104B9000000080EA0101DFF80CC081EA0000FFF7A5
:104BA000FFB900000900160490EA010F48BF81F028
:104BB00000413FF546AE421A3EBF82F00042801AE5
:104BC00089184FEAD0524FF07F4C1CEA410FA2EBFC
:104BD000D15318BF9CEA026F4FD04FF0004C4CEA03
:104BE00000204CEA012121FA03FCB0EB0C0C0FD49D
:104BF00012F0FE0F18BF5FEA4C001DD5001240EB0B
:104C0000C25038BF70471CF03F0F18BF70470BE011
:104C1000A2F101025FEA1C2040EBC25038BF70478E
:104C20001CF07F0F18BF7047C3F12003994014BFD9
:104C3000401E20F0010070474FEA122316D00042B8
:104C400004BF002070474FEA9000B0FA80FCA2EB4E
:104C50000C02CCF1280C60FA0CF093EA122F04BF7E
:104C600000EBC25070474FEAC37070475FEADC1038
:104C700008BF70474FEAC37070479CEA026F04D0C8
:104C800010EA5C0F08BF00207047BCEB410F4FEAF1
:104C9000400228BF9445DFF82CC0FFF44BAEAFF3C1
:104CA0000080B2EB410F06D012F1807F08BF704741
:104CB00081F00040704790EA010F48BF70470248FA
:104CC00070470000020000040000C07F00F00043B5
:104CD00043EAD05323F48073C3F1C10323F00041AE
:104CE00017291FD8C3F1200310FA03F1C3F12003E1
:104CF00020F07F4040F4000020FA03F003F000436E
:104D000040EA03000DD00B46590009D318BF401CE0
:104D100006D17FEAE27398BF401C38BF20F0010043
:104D200070477047182903EB912318BF6FF00041BB
:104D3000013168BF03F0004009D6400203F0004093
:104D400000F1010004BF12F0004F20F00100704795
:104D50007047FEF7DAB90CF00F03092B08BF0820E3
:104D600000F02B800A2B0BD0082B18BF704708BF10
:104D70001CF0400F0AD04FF000004FF000017047C8
:104D80001CF0400F18BF4FF0004070471CF0100F90
:104D900008D020F0704300F07F4242EAD3014FEA8E
:104DA0004370704700F0604021F07F4242EA000209
:104DB00001F07F4040EA727070471CF4801F11D0F0
:104DC0001CF4E02F03D06FEACC31490070474FF05C
:104DD0004050EFF3008222F0704242EA000282F378
:104DE000008870474FF0000070470000024000004C
:104DF000000000A00000000005400000000000C806
:104E0000000000000C4000000000409C000000007A
:104E1000194000000020BCBE00000000344000002B
:104E2000BFC91B8E00000004B5400000504BCFD01E
:104E30006607E2CF010000006C4100003E8251AAEB
:104E4000DFEEA73401000000D9420000DCB5A0E28B
:104E50003A301F97FFFFFFFFB4450000FD25A0C8B3
:104E6000E9A3C14FFFFFFFFFFF3F000000000080EC
:104E700000000000FF3F0000000000800000000074
:104E8000BC4E000800000020480000006C01000833
:104E9000044F00084800002028070000880100088F
:104EA0001C00000043000000F8FFFFFF0C000000A2
:104EB0000E0000000F0000002E00000000000000A7
:104EC00000000000000000000000000000A24A04F2
:104ED00000000000000000000102030406070809AA
:104EE00000000000000000000000000000000000C2
:104EF0000000000001020304010203040607080980
:044F00000204060899
:0400000508000131BD
:00000001FF
